{
  "_format": "hh-sol-artifact-1",
  "contractName": "CertificateRegistry",
  "sourceName": "contracts/CertificateRegistry.sol",
  "abi": [
    {
      "inputs": [],
      "stateMutability": "nonpayable",
      "type": "constructor"
    },
    {
      "anonymous": false,
      "inputs": [
        {
          "indexed": true,
          "internalType": "bytes32",
          "name": "certId",
          "type": "bytes32"
        },
        {
          "indexed": true,
          "internalType": "address",
          "name": "issuer",
          "type": "address"
        },
        {
          "indexed": false,
          "internalType": "string",
          "name": "ipfsCid",
          "type": "string"
        },
        {
          "indexed": false,
          "internalType": "uint256",
          "name": "issuedAt",
          "type": "uint256"
        }
      ],
      "name": "CertificateIssued",
      "type": "event"
    },
    {
      "anonymous": false,
      "inputs": [
        {
          "indexed": true,
          "internalType": "bytes32",
          "name": "certId",
          "type": "bytes32"
        },
        {
          "indexed": true,
          "internalType": "address",
          "name": "issuer",
          "type": "address"
        },
        {
          "indexed": false,
          "internalType": "uint256",
          "name": "revokedAt",
          "type": "uint256"
        }
      ],
      "name": "CertificateRevoked",
      "type": "event"
    },
    {
      "anonymous": false,
      "inputs": [
        {
          "indexed": true,
          "internalType": "address",
          "name": "issuer",
          "type": "address"
        }
      ],
      "name": "IssuerAdded",
      "type": "event"
    },
    {
      "anonymous": false,
      "inputs": [
        {
          "indexed": true,
          "internalType": "address",
          "name": "issuer",
          "type": "address"
        }
      ],
      "name": "IssuerRemoved",
      "type": "event"
    },
    {
      "inputs": [
        {
          "internalType": "address",
          "name": "_issuer",
          "type": "address"
        }
      ],
      "name": "addIssuer",
      "outputs": [],
      "stateMutability": "nonpayable",
      "type": "function"
    },
    {
      "inputs": [],
      "name": "admin",
      "outputs": [
        {
          "internalType": "address",
          "name": "",
          "type": "address"
        }
      ],
      "stateMutability": "view",
      "type": "function"
    },
    {
      "inputs": [
        {
          "internalType": "bytes32",
          "name": "certId",
          "type": "bytes32"
        },
        {
          "internalType": "string",
          "name": "ipfsCid",
          "type": "string"
        }
      ],
      "name": "issueCertificate",
      "outputs": [],
      "stateMutability": "nonpayable",
      "type": "function"
    },
    {
      "inputs": [
        {
          "internalType": "address",
          "name": "",
          "type": "address"
        }
      ],
      "name": "issuers",
      "outputs": [
        {
          "internalType": "bool",
          "name": "",
          "type": "bool"
        }
      ],
      "stateMutability": "view",
      "type": "function"
    },
    {
      "inputs": [
        {
          "internalType": "address",
          "name": "_issuer",
          "type": "address"
        }
      ],
      "name": "removeIssuer",
      "outputs": [],
      "stateMutability": "nonpayable",
      "type": "function"
    },
    {
      "inputs": [
        {
          "internalType": "bytes32",
          "name": "certId",
          "type": "bytes32"
        }
      ],
      "name": "revokeCertificate",
      "outputs": [],
      "stateMutability": "nonpayable",
      "type": "function"
    },
    {
      "inputs": [
        {
          "internalType": "bytes32",
          "name": "certId",
          "type": "bytes32"
        }
      ],
      "name": "verifyCertificate",
      "outputs": [
        {
          "internalType": "string",
          "name": "ipfsCid",
          "type": "string"
        },
        {
          "internalType": "address",
          "name": "issuer",
          "type": "address"
        },
        {
          "internalType": "uint256",
          "name": "issuedAt",
          "type": "uint256"
        },
        {
          "internalType": "bool",
          "name": "revoked",
          "type": "bool"
        }
      ],
      "stateMutability": "view",
      "type": "function"
    }
  ],
  "bytecode": "0x608060405234801561001057600080fd5b50336000806101000a81548173ffffffffffffffffffffffffffffffffffffffff021916908373ffffffffffffffffffffffffffffffffffffffff160217905550611485806100606000396000f3fe608060405234801561001057600080fd5b506004361061007d5760003560e01c8063850c17681161005b578063850c1768146100ea578063baf75ec71461011d578063c6cbc52a14610139578063f851a440146101555761007d565b806320694db01461008257806338a7543e1461009e57806347bc7093146100ce575b600080fd5b61009c60048036038101906100979190610b1b565b610173565b005b6100b860048036038101906100b39190610b1b565b61030d565b6040516100c59190610b63565b60405180910390f35b6100e860048036038101906100e39190610b1b565b61032d565b005b61010460048036038101906100ff9190610bb4565b610459565b6040516101149493929190610c99565b60405180910390f35b61013760048036038101906101329190610d4a565b6105f9565b005b610153600480360381019061014e9190610bb4565b610851565b005b61015d610a8f565b60405161016a9190610daa565b60405180910390f35b60008054906101000a900473ffffffffffffffffffffffffffffffffffffffff1673ffffffffffffffffffffffffffffffffffffffff163373ffffffffffffffffffffffffffffffffffffffff1614610201576040517f08c379a00000000000000000000000000000000000000000000000000000000081526004016101f890610e11565b60405180910390fd5b600073ffffffffffffffffffffffffffffffffffffffff168173ffffffffffffffffffffffffffffffffffffffff1603610270576040517f08c379a000000000000000000000000000000000000000000000000000000000815260040161026790610e7d565b60405180910390fd5b60018060008373ffffffffffffffffffffffffffffffffffffffff1673ffffffffffffffffffffffffffffffffffffffff16815260200190815260200160002060006101000a81548160ff0219169083151502179055508073ffffffffffffffffffffffffffffffffffffffff167f05e7c881d716bee8cb7ed92293133ba156704252439e5c502c277448f04e20c260405160405180910390a250565b60016020528060005260406000206000915054906101000a900460ff1681565b60008054906101000a900473ffffffffffffffffffffffffffffffffffffffff1673ffffffffffffffffffffffffffffffffffffffff163373ffffffffffffffffffffffffffffffffffffffff16146103bb576040517f08c379a00000000000000000000000000000000000000000000000000000000081526004016103b290610e11565b60405180910390fd5b6000600160008373ffffffffffffffffffffffffffffffffffffffff1673ffffffffffffffffffffffffffffffffffffffff16815260200190815260200160002060006101000a81548160ff0219169083151502179055508073ffffffffffffffffffffffffffffffffffffffff167faf66545c919a3be306ee446d8f42a9558b5b022620df880517bc9593ec0f2d5260405160405180910390a250565b60606000806000806002600087815260200190815260200160002060405180608001604052908160008201805461048f90610ecc565b80601f01602080910402602001604051908101604052809291908181526020018280546104bb90610ecc565b80156105085780601f106104dd57610100808354040283529160200191610508565b820191906000526020600020905b8154815290600101906020018083116104eb57829003601f168201915b505050505081526020016001820160009054906101000a900473ffffffffffffffffffffffffffffffffffffffff1673ffffffffffffffffffffffffffffffffffffffff1673ffffffffffffffffffffffffffffffffffffffff168152602001600282015481526020016003820160009054906101000a900460ff161515151581525050905060008160400151036105d5576040517f08c379a00000000000000000000000000000000000000000000000000000000081526004016105cc90610f49565b60405180910390fd5b80600001518160200151826040015183606001519450945094509450509193509193565b600160003373ffffffffffffffffffffffffffffffffffffffff1673ffffffffffffffffffffffffffffffffffffffff16815260200190815260200160002060009054906101000a900460ff16610685576040517f08c379a000000000000000000000000000000000000000000000000000000000815260040161067c90610fb5565b60405180910390fd5b60006002600085815260200190815260200160002060020154146106de576040517f08c379a00000000000000000000000000000000000000000000000000000000081526004016106d590611021565b60405180910390fd5b604051806080016040528083838080601f016020809104026020016040519081016040528093929190818152602001838380828437600081840152601f19601f8201169050808301925050505050505081526020013373ffffffffffffffffffffffffffffffffffffffff16815260200142815260200160001515815250600260008581526020019081526020016000206000820151816000019081610784919061121c565b5060208201518160010160006101000a81548173ffffffffffffffffffffffffffffffffffffffff021916908373ffffffffffffffffffffffffffffffffffffffff1602179055506040820151816002015560608201518160030160006101000a81548160ff0219169083151502179055509050503373ffffffffffffffffffffffffffffffffffffffff16837f270157be81be690a745a1a2f93a76e8fa6ab0efc08abee1041bf72464ca854a18484426040516108449392919061132a565b60405180910390a3505050565b600160003373ffffffffffffffffffffffffffffffffffffffff1673ffffffffffffffffffffffffffffffffffffffff16815260200190815260200160002060009054906101000a900460ff166108dd576040517f08c379a00000000000000000000000000000000000000000000000000000000081526004016108d490610fb5565b60405180910390fd5b6000600260008381526020019081526020016000209050600081600201540361093b576040517f08c379a000000000000000000000000000000000000000000000000000000000815260040161093290610f49565b60405180910390fd5b8060030160009054906101000a900460ff161561098d576040517f08c379a0000000000000000000000000000000000000000000000000000000008152600401610984906113a8565b60405180910390fd5b3373ffffffffffffffffffffffffffffffffffffffff168160010160009054906101000a900473ffffffffffffffffffffffffffffffffffffffff1673ffffffffffffffffffffffffffffffffffffffff1614610a1f576040517f08c379a0000000000000000000000000000000000000000000000000000000008152600401610a1690611414565b60405180910390fd5b60018160030160006101000a81548160ff0219169083151502179055503373ffffffffffffffffffffffffffffffffffffffff16827f85fe6dd2dfc4757558754564c7ff020182ec3c918257c2ff3a217a63791ec24f42604051610a839190611434565b60405180910390a35050565b60008054906101000a900473ffffffffffffffffffffffffffffffffffffffff1681565b600080fd5b600080fd5b600073ffffffffffffffffffffffffffffffffffffffff82169050919050565b6000610ae882610abd565b9050919050565b610af881610add565b8114610b0357600080fd5b50565b600081359050610b1581610aef565b92915050565b600060208284031215610b3157610b30610ab3565b5b6000610b3f84828501610b06565b91505092915050565b60008115159050919050565b610b5d81610b48565b82525050565b6000602082019050610b786000830184610b54565b92915050565b6000819050919050565b610b9181610b7e565b8114610b9c57600080fd5b50565b600081359050610bae81610b88565b92915050565b600060208284031215610bca57610bc9610ab3565b5b6000610bd884828501610b9f565b91505092915050565b600081519050919050565b600082825260208201905092915050565b60005b83811015610c1b578082015181840152602081019050610c00565b60008484015250505050565b6000601f19601f8301169050919050565b6000610c4382610be1565b610c4d8185610bec565b9350610c5d818560208601610bfd565b610c6681610c27565b840191505092915050565b610c7a81610add565b82525050565b6000819050919050565b610c9381610c80565b82525050565b60006080820190508181036000830152610cb38187610c38565b9050610cc26020830186610c71565b610ccf6040830185610c8a565b610cdc6060830184610b54565b95945050505050565b600080fd5b600080fd5b600080fd5b60008083601f840112610d0a57610d09610ce5565b5b8235905067ffffffffffffffff811115610d2757610d26610cea565b5b602083019150836001820283011115610d4357610d42610cef565b5b9250929050565b600080600060408486031215610d6357610d62610ab3565b5b6000610d7186828701610b9f565b935050602084013567ffffffffffffffff811115610d9257610d91610ab8565b5b610d9e86828701610cf4565b92509250509250925092565b6000602082019050610dbf6000830184610c71565b92915050565b7f4e6f742061646d696e0000000000000000000000000000000000000000000000600082015250565b6000610dfb600983610bec565b9150610e0682610dc5565b602082019050919050565b60006020820190508181036000830152610e2a81610dee565b9050919050565b7f496e76616c696420616464726573730000000000000000000000000000000000600082015250565b6000610e67600f83610bec565b9150610e7282610e31565b602082019050919050565b60006020820190508181036000830152610e9681610e5a565b9050919050565b7f4e487b7100000000000000000000000000000000000000000000000000000000600052602260045260246000fd5b60006002820490506001821680610ee457607f821691505b602082108103610ef757610ef6610e9d565b5b50919050565b7f4365727469666963617465206e6f7420666f756e640000000000000000000000600082015250565b6000610f33601583610bec565b9150610f3e82610efd565b602082019050919050565b60006020820190508181036000830152610f6281610f26565b9050919050565b7f4e6f742069737375657200000000000000000000000000000000000000000000600082015250565b6000610f9f600a83610bec565b9150610faa82610f69565b602082019050919050565b60006020820190508181036000830152610fce81610f92565b9050919050565b7f4365727469666963617465206578697374730000000000000000000000000000600082015250565b600061100b601283610bec565b915061101682610fd5565b602082019050919050565b6000602082019050818103600083015261103a81610ffe565b9050919050565b7f4e487b7100000000000000000000000000000000000000000000000000000000600052604160045260246000fd5b60008190508160005260206000209050919050565b60006020601f8301049050919050565b600082821b905092915050565b6000600883026110d27fffffffffffffffffffffffffffffffffffffffffffffffffffffffffffffffff82611095565b6110dc8683611095565b95508019841693508086168417925050509392505050565b6000819050919050565b600061111961111461110f84610c80565b6110f4565b610c80565b9050919050565b6000819050919050565b611133836110fe565b61114761113f82611120565b8484546110a2565b825550505050565b600090565b61115c61114f565b61116781848461112a565b505050565b5b8181101561118b57611180600082611154565b60018101905061116d565b5050565b601f8211156111d0576111a181611070565b6111aa84611085565b810160208510156111b9578190505b6111cd6111c585611085565b83018261116c565b50505b505050565b600082821c905092915050565b60006111f3600019846008026111d5565b1980831691505092915050565b600061120c83836111e2565b9150826002028217905092915050565b61122582610be1565b67ffffffffffffffff81111561123e5761123d611041565b5b6112488254610ecc565b61125382828561118f565b600060209050601f8311600181146112865760008415611274578287015190505b61127e8582611200565b8655506112e6565b601f19841661129486611070565b60005b828110156112bc57848901518255600182019150602085019450602081019050611297565b868310156112d957848901516112d5601f8916826111e2565b8355505b6001600288020188555050505b505050505050565b82818337600083830152505050565b60006113098385610bec565b93506113168385846112ee565b61131f83610c27565b840190509392505050565b600060408201905081810360008301526113458185876112fd565b90506113546020830184610c8a565b949350505050565b7f416c7265616479207265766f6b65640000000000000000000000000000000000600082015250565b6000611392600f83610bec565b915061139d8261135c565b602082019050919050565b600060208201905081810360008301526113c181611385565b9050919050565b7f4e6f742063657274696669636174652069737375657200000000000000000000600082015250565b60006113fe601683610bec565b9150611409826113c8565b602082019050919050565b6000602082019050818103600083015261142d816113f1565b9050919050565b60006020820190506114496000830184610c8a565b9291505056fea2646970667358221220b9764959fc9f50e0e7728766b21016cf68f6203d387a4665b14433660304c26964736f6c63430008180033",
  "linkReferences": {},
  "deployedLinkReferences": {}
}